{
  "contractName": "DAO",
  "abi": [
    {
      "inputs": [
        {
          "internalType": "address",
          "name": "_tokenAddress",
          "type": "address"
        }
      ],
      "stateMutability": "nonpayable",
      "type": "constructor"
    },
    {
      "anonymous": false,
      "inputs": [
        {
          "indexed": false,
          "internalType": "uint256",
          "name": "proposalId",
          "type": "uint256"
        }
      ],
      "name": "ProposalExecuted",
      "type": "event"
    },
    {
      "anonymous": false,
      "inputs": [
        {
          "indexed": false,
          "internalType": "address",
          "name": "recipient",
          "type": "address"
        },
        {
          "indexed": false,
          "internalType": "uint256",
          "name": "amount",
          "type": "uint256"
        }
      ],
      "name": "RewardClaimed",
      "type": "event"
    },
    {
      "anonymous": false,
      "inputs": [
        {
          "indexed": false,
          "internalType": "uint256",
          "name": "proposalId",
          "type": "uint256"
        },
        {
          "indexed": false,
          "internalType": "address",
          "name": "voter",
          "type": "address"
        },
        {
          "indexed": false,
          "internalType": "bool",
          "name": "inSupport",
          "type": "bool"
        },
        {
          "indexed": false,
          "internalType": "uint256",
          "name": "votes",
          "type": "uint256"
        }
      ],
      "name": "Vote",
      "type": "event"
    },
    {
      "inputs": [],
      "name": "REWARD_PER_VOTE",
      "outputs": [
        {
          "internalType": "uint256",
          "name": "",
          "type": "uint256"
        }
      ],
      "stateMutability": "view",
      "type": "function",
      "constant": true
    },
    {
      "inputs": [],
      "name": "admin",
      "outputs": [
        {
          "internalType": "address",
          "name": "",
          "type": "address"
        }
      ],
      "stateMutability": "view",
      "type": "function",
      "constant": true
    },
    {
      "inputs": [],
      "name": "proposalCount",
      "outputs": [
        {
          "internalType": "uint256",
          "name": "",
          "type": "uint256"
        }
      ],
      "stateMutability": "view",
      "type": "function",
      "constant": true
    },
    {
      "inputs": [
        {
          "internalType": "uint256",
          "name": "",
          "type": "uint256"
        }
      ],
      "name": "proposals",
      "outputs": [
        {
          "internalType": "uint256",
          "name": "id",
          "type": "uint256"
        },
        {
          "internalType": "address",
          "name": "creator",
          "type": "address"
        },
        {
          "internalType": "string",
          "name": "title",
          "type": "string"
        },
        {
          "internalType": "string",
          "name": "description",
          "type": "string"
        },
        {
          "internalType": "uint256",
          "name": "votingStartTime",
          "type": "uint256"
        },
        {
          "internalType": "uint256",
          "name": "votingEndTime",
          "type": "uint256"
        },
        {
          "internalType": "uint256",
          "name": "forVotes",
          "type": "uint256"
        },
        {
          "internalType": "uint256",
          "name": "againstVotes",
          "type": "uint256"
        },
        {
          "internalType": "bool",
          "name": "executed",
          "type": "bool"
        }
      ],
      "stateMutability": "view",
      "type": "function",
      "constant": true
    },
    {
      "inputs": [
        {
          "internalType": "address",
          "name": "",
          "type": "address"
        }
      ],
      "name": "rewards",
      "outputs": [
        {
          "internalType": "uint256",
          "name": "",
          "type": "uint256"
        }
      ],
      "stateMutability": "view",
      "type": "function",
      "constant": true
    },
    {
      "inputs": [],
      "name": "token",
      "outputs": [
        {
          "internalType": "contract TokenInterface",
          "name": "",
          "type": "address"
        }
      ],
      "stateMutability": "view",
      "type": "function",
      "constant": true
    },
    {
      "inputs": [],
      "name": "tokenAddress",
      "outputs": [
        {
          "internalType": "address",
          "name": "",
          "type": "address"
        }
      ],
      "stateMutability": "view",
      "type": "function",
      "constant": true
    },
    {
      "inputs": [],
      "name": "tokenPrice",
      "outputs": [
        {
          "internalType": "uint256",
          "name": "",
          "type": "uint256"
        }
      ],
      "stateMutability": "view",
      "type": "function",
      "constant": true
    },
    {
      "inputs": [
        {
          "internalType": "string",
          "name": "_title",
          "type": "string"
        },
        {
          "internalType": "string",
          "name": "_description",
          "type": "string"
        }
      ],
      "name": "createProposal",
      "outputs": [
        {
          "internalType": "uint256",
          "name": "",
          "type": "uint256"
        }
      ],
      "stateMutability": "nonpayable",
      "type": "function"
    },
    {
      "inputs": [
        {
          "internalType": "uint256",
          "name": "_proposalId",
          "type": "uint256"
        },
        {
          "internalType": "bool",
          "name": "_inSupport",
          "type": "bool"
        }
      ],
      "name": "vote",
      "outputs": [],
      "stateMutability": "nonpayable",
      "type": "function"
    },
    {
      "inputs": [
        {
          "internalType": "uint256",
          "name": "_proposalId",
          "type": "uint256"
        }
      ],
      "name": "executeProposal",
      "outputs": [],
      "stateMutability": "nonpayable",
      "type": "function"
    },
    {
      "inputs": [],
      "name": "fetchProposals",
      "outputs": [
        {
          "components": [
            {
              "internalType": "uint256",
              "name": "id",
              "type": "uint256"
            },
            {
              "internalType": "address",
              "name": "creator",
              "type": "address"
            },
            {
              "internalType": "string",
              "name": "title",
              "type": "string"
            },
            {
              "internalType": "string",
              "name": "description",
              "type": "string"
            },
            {
              "internalType": "uint256",
              "name": "votingStartTime",
              "type": "uint256"
            },
            {
              "internalType": "uint256",
              "name": "votingEndTime",
              "type": "uint256"
            },
            {
              "internalType": "uint256",
              "name": "forVotes",
              "type": "uint256"
            },
            {
              "internalType": "uint256",
              "name": "againstVotes",
              "type": "uint256"
            },
            {
              "internalType": "bool",
              "name": "executed",
              "type": "bool"
            }
          ],
          "internalType": "struct DAO.Proposal[]",
          "name": "",
          "type": "tuple[]"
        }
      ],
      "stateMutability": "view",
      "type": "function",
      "constant": true
    },
    {
      "inputs": [
        {
          "internalType": "uint256",
          "name": "input_amount",
          "type": "uint256"
        }
      ],
      "name": "mint",
      "outputs": [],
      "stateMutability": "payable",
      "type": "function",
      "payable": true
    },
    {
      "inputs": [],
      "name": "rights",
      "outputs": [
        {
          "internalType": "uint256",
          "name": "",
          "type": "uint256"
        }
      ],
      "stateMutability": "view",
      "type": "function",
      "constant": true
    }
  ],
  "bytecode": "0x6080604052670de0b6b3a76400006007553480156200001d57600080fd5b50604051620024343803806200243483398181016040528101906200004391906200017e565b806000806101000a81548173ffffffffffffffffffffffffffffffffffffffff021916908373ffffffffffffffffffffffffffffffffffffffff16021790555080600160006101000a81548173ffffffffffffffffffffffffffffffffffffffff021916908373ffffffffffffffffffffffffffffffffffffffff16021790555033600260006101000a81548173ffffffffffffffffffffffffffffffffffffffff021916908373ffffffffffffffffffffffffffffffffffffffff160217905550600060038190555050620001b0565b600080fd5b600073ffffffffffffffffffffffffffffffffffffffff82169050919050565b6000620001468262000119565b9050919050565b620001588162000139565b81146200016457600080fd5b50565b60008151905062000178816200014d565b92915050565b60006020828403121562000197576200019662000114565b5b6000620001a78482850162000167565b91505092915050565b61227480620001c06000396000f3fe6080604052600436106100dd5760003560e01c80639d76ea581161007f578063da35c66411610059578063da35c664146102bb578063f4d70468146102e6578063f851a44014610311578063fc0c546a1461033c576100dd565b80639d76ea581461024b578063a0712d6814610276578063c9d27afe14610292576100dd565b806365e481e2116100bb57806365e481e21461018d5780637e320d2f146101ca5780637ff9b596146101f5578063980e8db614610220576100dd565b8063013cf08b146100e25780630700037d146101275780630d61b51914610164575b600080fd5b3480156100ee57600080fd5b50610109600480360381019061010491906112cb565b610367565b60405161011e999897969594939291906113fc565b60405180910390f35b34801561013357600080fd5b5061014e600480360381019061014991906114c3565b6104f2565b60405161015b91906114f0565b60405180910390f35b34801561017057600080fd5b5061018b600480360381019061018691906112cb565b61050a565b005b34801561019957600080fd5b506101b460048036038101906101af9190611640565b61067e565b6040516101c191906114f0565b60405180910390f35b3480156101d657600080fd5b506101df6107ef565b6040516101ec91906118bd565b60405180910390f35b34801561020157600080fd5b5061020a610a8e565b60405161021791906114f0565b60405180910390f35b34801561022c57600080fd5b50610235610a94565b60405161024291906114f0565b60405180910390f35b34801561025757600080fd5b50610260610b37565b60405161026d91906118df565b60405180910390f35b610290600480360381019061028b91906112cb565b610b5b565b005b34801561029e57600080fd5b506102b960048036038101906102b49190611926565b610c36565b005b3480156102c757600080fd5b506102d06111c6565b6040516102dd91906114f0565b60405180910390f35b3480156102f257600080fd5b506102fb6111cc565b60405161030891906114f0565b60405180910390f35b34801561031d57600080fd5b506103266111d1565b60405161033391906118df565b60405180910390f35b34801561034857600080fd5b506103516111f7565b60405161035e91906119c5565b60405180910390f35b60046020528060005260406000206000915090508060000154908060010160009054906101000a900473ffffffffffffffffffffffffffffffffffffffff16908060020180546103b690611a0f565b80601f01602080910402602001604051908101604052809291908181526020018280546103e290611a0f565b801561042f5780601f106104045761010080835404028352916020019161042f565b820191906000526020600020905b81548152906001019060200180831161041257829003601f168201915b50505050509080600301805461044490611a0f565b80601f016020809104026020016040519081016040528092919081815260200182805461047090611a0f565b80156104bd5780601f10610492576101008083540402835291602001916104bd565b820191906000526020600020905b8154815290600101906020018083116104a057829003601f168201915b5050505050908060040154908060050154908060060154908060070154908060080160009054906101000a900460ff16905089565b60056020528060005260406000206000915090505481565b60006004600083815260200190815260200160002090508060080160009054906101000a900460ff1615610573576040517f08c379a000000000000000000000000000000000000000000000000000000000815260040161056a90611ab2565b60405180910390fd5b806005015442116105b9576040517f08c379a00000000000000000000000000000000000000000000000000000000081526004016105b090611b1e565b60405180910390fd5b6000816007015482600601546105cf9190611b6d565b905060008111610614576040517f08c379a000000000000000000000000000000000000000000000000000000000815260040161060b90611c0f565b60405180910390fd5b8160070154826006015411156106795760018260080160006101000a81548160ff0219169083151502179055507f712ae1383f79ac853f8d882153778e0260ef8f03b504e2866e0593e04d2b291f8360405161067091906114f0565b60405180910390a15b505050565b60008060405180610120016040528060035481526020013373ffffffffffffffffffffffffffffffffffffffff168152602001858152602001848152602001428152602001601e426106d09190611b6d565b81526020016000815260200160008152602001600015158152509050806004600060035481526020019081526020016000206000820151816000015560208201518160010160006101000a81548173ffffffffffffffffffffffffffffffffffffffff021916908373ffffffffffffffffffffffffffffffffffffffff16021790555060408201518160020190816107689190611dd1565b50606082015181600301908161077e9190611dd1565b506080820151816004015560a0820151816005015560c0820151816006015560e082015181600701556101008201518160080160006101000a81548160ff021916908315150217905550905050600360008154809291906107de90611ea3565b919050555060035491505092915050565b606060008060035467ffffffffffffffff8111156108105761080f611515565b5b60405190808252806020026020018201604052801561084957816020015b61083661121d565b81526020019060019003908161082e5790505b50905060005b600354811015610a855760006004600083815260200190815260200160002090508060405180610120016040529081600082015481526020016001820160009054906101000a900473ffffffffffffffffffffffffffffffffffffffff1673ffffffffffffffffffffffffffffffffffffffff1673ffffffffffffffffffffffffffffffffffffffff1681526020016002820180546108ed90611a0f565b80601f016020809104026020016040519081016040528092919081815260200182805461091990611a0f565b80156109665780601f1061093b57610100808354040283529160200191610966565b820191906000526020600020905b81548152906001019060200180831161094957829003601f168201915b5050505050815260200160038201805461097f90611a0f565b80601f01602080910402602001604051908101604052809291908181526020018280546109ab90611a0f565b80156109f85780601f106109cd576101008083540402835291602001916109f8565b820191906000526020600020905b8154815290600101906020018083116109db57829003601f168201915b50505050508152602001600482015481526020016005820154815260200160068201548152602001600782015481526020016008820160009054906101000a900460ff161515151581525050838581518110610a5757610a56611eeb565b5b6020026020010181905250600184610a6f9190611b6d565b9350508080610a7d90611ea3565b91505061084f565b50809250505090565b60075481565b6000600160009054906101000a900473ffffffffffffffffffffffffffffffffffffffff1673ffffffffffffffffffffffffffffffffffffffff166370a08231336040518263ffffffff1660e01b8152600401610af191906118df565b602060405180830381865afa158015610b0e573d6000803e3d6000fd5b505050506040513d601f19601f82011682018060405250810190610b329190611f2f565b905090565b60008054906101000a900473ffffffffffffffffffffffffffffffffffffffff1681565b600081905060008111610ba3576040517f08c379a0000000000000000000000000000000000000000000000000000000008152600401610b9a90611fa8565b60405180910390fd5b600160009054906101000a900473ffffffffffffffffffffffffffffffffffffffff1673ffffffffffffffffffffffffffffffffffffffff1663fc27245982336040518363ffffffff1660e01b8152600401610c00929190611fc8565b600060405180830381600087803b158015610c1a57600080fd5b505af1158015610c2e573d6000803e3d6000fd5b505050505050565b60006004600084815260200190815260200160002090506000600160009054906101000a900473ffffffffffffffffffffffffffffffffffffffff1673ffffffffffffffffffffffffffffffffffffffff166370a08231336040518263ffffffff1660e01b8152600401610caa91906118df565b602060405180830381865afa158015610cc7573d6000803e3d6000fd5b505050506040513d601f19601f82011682018060405250810190610ceb9190611f2f565b11610d2b576040517f08c379a0000000000000000000000000000000000000000000000000000000008152600401610d229061203d565b60405180910390fd5b80600501544211610d71576040517f08c379a0000000000000000000000000000000000000000000000000000000008152600401610d68906120a9565b60405180910390fd5b8060080160009054906101000a900460ff1615610dc3576040517f08c379a0000000000000000000000000000000000000000000000000000000008152600401610dba90611ab2565b60405180910390fd5b6006600084815260200190815260200160002060003373ffffffffffffffffffffffffffffffffffffffff1673ffffffffffffffffffffffffffffffffffffffff16815260200190815260200160002060009054906101000a900460ff1615610e61576040517f08c379a0000000000000000000000000000000000000000000000000000000008152600401610e5890612115565b60405180910390fd5b6000600160009054906101000a900473ffffffffffffffffffffffffffffffffffffffff1673ffffffffffffffffffffffffffffffffffffffff166370a08231336040518263ffffffff1660e01b8152600401610ebe91906118df565b602060405180830381865afa158015610edb573d6000803e3d6000fd5b505050506040513d601f19601f82011682018060405250810190610eff9190611f2f565b905060008111610f44576040517f08c379a0000000000000000000000000000000000000000000000000000000008152600401610f3b9061203d565b60405180910390fd5b60016006600086815260200190815260200160002060003373ffffffffffffffffffffffffffffffffffffffff1673ffffffffffffffffffffffffffffffffffffffff16815260200190815260200160002060006101000a81548160ff0219169083151502179055508215610fd4576001826006016000828254610fc89190611b6d565b92505081905550610ff1565b6001826007016000828254610fe99190611b6d565b925050819055505b600160009054906101000a900473ffffffffffffffffffffffffffffffffffffffff1673ffffffffffffffffffffffffffffffffffffffff1663a857eae36001336040518363ffffffff1660e01b815260040161104f929190612170565b600060405180830381600087803b15801561106957600080fd5b505af115801561107d573d6000803e3d6000fd5b50505050600260035461109091906121c8565b81106111835760006001905080600560003373ffffffffffffffffffffffffffffffffffffffff1673ffffffffffffffffffffffffffffffffffffffff16815260200190815260200160002060008282546110eb9190611b6d565b92505081905550600160009054906101000a900473ffffffffffffffffffffffffffffffffffffffff1673ffffffffffffffffffffffffffffffffffffffff1663fc27245982336040518363ffffffff1660e01b815260040161114f929190611fc8565b600060405180830381600087803b15801561116957600080fd5b505af115801561117d573d6000803e3d6000fd5b50505050505b7f88d35328232823f54954b6627e9f732371656f6daa40cb1b01b27dc7875a7b47843385846040516111b894939291906121f9565b60405180910390a150505050565b60035481565b600181565b600260009054906101000a900473ffffffffffffffffffffffffffffffffffffffff1681565b600160009054906101000a900473ffffffffffffffffffffffffffffffffffffffff1681565b60405180610120016040528060008152602001600073ffffffffffffffffffffffffffffffffffffffff1681526020016060815260200160608152602001600081526020016000815260200160008152602001600081526020016000151581525090565b6000604051905090565b600080fd5b600080fd5b6000819050919050565b6112a881611295565b81146112b357600080fd5b50565b6000813590506112c58161129f565b92915050565b6000602082840312156112e1576112e061128b565b5b60006112ef848285016112b6565b91505092915050565b61130181611295565b82525050565b600073ffffffffffffffffffffffffffffffffffffffff82169050919050565b600061133282611307565b9050919050565b61134281611327565b82525050565b600081519050919050565b600082825260208201905092915050565b60005b83811015611382578082015181840152602081019050611367565b83811115611391576000848401525b50505050565b6000601f19601f8301169050919050565b60006113b382611348565b6113bd8185611353565b93506113cd818560208601611364565b6113d681611397565b840191505092915050565b60008115159050919050565b6113f6816113e1565b82525050565b600061012082019050611412600083018c6112f8565b61141f602083018b611339565b8181036040830152611431818a6113a8565b9050818103606083015261144581896113a8565b905061145460808301886112f8565b61146160a08301876112f8565b61146e60c08301866112f8565b61147b60e08301856112f8565b6114896101008301846113ed565b9a9950505050505050505050565b6114a081611327565b81146114ab57600080fd5b50565b6000813590506114bd81611497565b92915050565b6000602082840312156114d9576114d861128b565b5b60006114e7848285016114ae565b91505092915050565b600060208201905061150560008301846112f8565b92915050565b600080fd5b600080fd5b7f4e487b7100000000000000000000000000000000000000000000000000000000600052604160045260246000fd5b61154d82611397565b810181811067ffffffffffffffff8211171561156c5761156b611515565b5b80604052505050565b600061157f611281565b905061158b8282611544565b919050565b600067ffffffffffffffff8211156115ab576115aa611515565b5b6115b482611397565b9050602081019050919050565b82818337600083830152505050565b60006115e36115de84611590565b611575565b9050828152602081018484840111156115ff576115fe611510565b5b61160a8482856115c1565b509392505050565b600082601f8301126116275761162661150b565b5b81356116378482602086016115d0565b91505092915050565b600080604083850312156116575761165661128b565b5b600083013567ffffffffffffffff81111561167557611674611290565b5b61168185828601611612565b925050602083013567ffffffffffffffff8111156116a2576116a1611290565b5b6116ae85828601611612565b9150509250929050565b600081519050919050565b600082825260208201905092915050565b6000819050602082019050919050565b6116ed81611295565b82525050565b6116fc81611327565b82525050565b600082825260208201905092915050565b600061171e82611348565b6117288185611702565b9350611738818560208601611364565b61174181611397565b840191505092915050565b611755816113e1565b82525050565b60006101208301600083015161177460008601826116e4565b50602083015161178760208601826116f3565b506040830151848203604086015261179f8282611713565b915050606083015184820360608601526117b98282611713565b91505060808301516117ce60808601826116e4565b5060a08301516117e160a08601826116e4565b5060c08301516117f460c08601826116e4565b5060e083015161180760e08601826116e4565b5061010083015161181c61010086018261174c565b508091505092915050565b6000611833838361175b565b905092915050565b6000602082019050919050565b6000611853826116b8565b61185d81856116c3565b93508360208202850161186f856116d4565b8060005b858110156118ab578484038952815161188c8582611827565b94506118978361183b565b925060208a01995050600181019050611873565b50829750879550505050505092915050565b600060208201905081810360008301526118d78184611848565b905092915050565b60006020820190506118f46000830184611339565b92915050565b611903816113e1565b811461190e57600080fd5b50565b600081359050611920816118fa565b92915050565b6000806040838503121561193d5761193c61128b565b5b600061194b858286016112b6565b925050602061195c85828601611911565b9150509250929050565b6000819050919050565b600061198b61198661198184611307565b611966565b611307565b9050919050565b600061199d82611970565b9050919050565b60006119af82611992565b9050919050565b6119bf816119a4565b82525050565b60006020820190506119da60008301846119b6565b92915050565b7f4e487b7100000000000000000000000000000000000000000000000000000000600052602260045260246000fd5b60006002820490506001821680611a2757607f821691505b602082108103611a3a57611a396119e0565b5b50919050565b7f50726f706f73616c2068617320616c7265616479206265656e2065786563757460008201527f6564000000000000000000000000000000000000000000000000000000000000602082015250565b6000611a9c602283611353565b9150611aa782611a40565b604082019050919050565b60006020820190508181036000830152611acb81611a8f565b9050919050565b7f566f74696e6720706572696f6420686173206e6f7420656e6465642079657400600082015250565b6000611b08601f83611353565b9150611b1382611ad2565b602082019050919050565b60006020820190508181036000830152611b3781611afb565b9050919050565b7f4e487b7100000000000000000000000000000000000000000000000000000000600052601160045260246000fd5b6000611b7882611295565b9150611b8383611295565b9250827fffffffffffffffffffffffffffffffffffffffffffffffffffffffffffffffff03821115611bb857611bb7611b3e565b5b828201905092915050565b7f4e6f20766f74657320666f722070726f706f73616c0000000000000000000000600082015250565b6000611bf9601583611353565b9150611c0482611bc3565b602082019050919050565b60006020820190508181036000830152611c2881611bec565b9050919050565b60008190508160005260206000209050919050565b60006020601f8301049050919050565b600082821b905092915050565b600060088302611c917fffffffffffffffffffffffffffffffffffffffffffffffffffffffffffffffff82611c54565b611c9b8683611c54565b95508019841693508086168417925050509392505050565b6000611cce611cc9611cc484611295565b611966565b611295565b9050919050565b6000819050919050565b611ce883611cb3565b611cfc611cf482611cd5565b848454611c61565b825550505050565b600090565b611d11611d04565b611d1c818484611cdf565b505050565b5b81811015611d4057611d35600082611d09565b600181019050611d22565b5050565b601f821115611d8557611d5681611c2f565b611d5f84611c44565b81016020851015611d6e578190505b611d82611d7a85611c44565b830182611d21565b50505b505050565b600082821c905092915050565b6000611da860001984600802611d8a565b1980831691505092915050565b6000611dc18383611d97565b9150826002028217905092915050565b611dda82611348565b67ffffffffffffffff811115611df357611df2611515565b5b611dfd8254611a0f565b611e08828285611d44565b600060209050601f831160018114611e3b5760008415611e29578287015190505b611e338582611db5565b865550611e9b565b601f198416611e4986611c2f565b60005b82811015611e7157848901518255600182019150602085019450602081019050611e4c565b86831015611e8e5784890151611e8a601f891682611d97565b8355505b6001600288020188555050505b505050505050565b6000611eae82611295565b91507fffffffffffffffffffffffffffffffffffffffffffffffffffffffffffffffff8203611ee057611edf611b3e565b5b600182019050919050565b7f4e487b7100000000000000000000000000000000000000000000000000000000600052603260045260246000fd5b600081519050611f298161129f565b92915050565b600060208284031215611f4557611f4461128b565b5b6000611f5384828501611f1a565b91505092915050565b7f416d6f756e742073686f756c642062652067726561746572207468616e203000600082015250565b6000611f92601f83611353565b9150611f9d82611f5c565b602082019050919050565b60006020820190508181036000830152611fc181611f85565b9050919050565b6000604082019050611fdd60008301856112f8565b611fea6020830184611339565b9392505050565b7f4d757374206861766520746f6b656e7320746f20766f74650000000000000000600082015250565b6000612027601883611353565b915061203282611ff1565b602082019050919050565b600060208201905081810360008301526120568161201a565b9050919050565b7f566f74696e67206973207374696c6c20676f696e67206f6e0000000000000000600082015250565b6000612093601883611353565b915061209e8261205d565b602082019050919050565b600060208201905081810360008301526120c281612086565b9050919050565b7f416c726561647920766f74656400000000000000000000000000000000000000600082015250565b60006120ff600d83611353565b915061210a826120c9565b602082019050919050565b6000602082019050818103600083015261212e816120f2565b9050919050565b6000819050919050565b600061215a61215561215084612135565b611966565b611295565b9050919050565b61216a8161213f565b82525050565b60006040820190506121856000830185612161565b6121926020830184611339565b9392505050565b7f4e487b7100000000000000000000000000000000000000000000000000000000600052601260045260246000fd5b60006121d382611295565b91506121de83611295565b9250826121ee576121ed612199565b5b828204905092915050565b600060808201905061220e60008301876112f8565b61221b6020830186611339565b61222860408301856113ed565b61223560608301846112f8565b9594505050505056fea2646970667358221220552b50f2c608d5f3dce9c52f534f7f8c80d1e41e640d617c497fc5a35d60007164736f6c634300080f0033",
  "immutableReferences": {},
  "source": "// SPDX-License-Identifier: MIT\r\npragma solidity ^0.8.0;\r\n\r\ninterface TokenInterface {\r\n    function updateTotalSupply(uint256 amount , address sender) external;\r\n\r\n    function totalSupply() external view returns (uint256);\r\n\r\n    function balanceOf(address account) external view returns (uint256);\r\n\r\n    function transfer(address to, uint256 value) external returns (bool);\r\n\r\n    function decreasebalance(uint256 amount , address sender) external;\r\n}\r\n\r\ncontract DAO {\r\n    struct Proposal {\r\n        uint256 id;\r\n        address creator;\r\n        string title;\r\n        string description;\r\n        uint256 votingStartTime;\r\n        uint256 votingEndTime;\r\n        uint256 forVotes;\r\n        uint256 againstVotes;\r\n        bool executed;\r\n    }\r\n\r\n    address public tokenAddress;\r\n    TokenInterface public token;\r\n    address public admin;\r\n    uint256 public proposalCount;\r\n    mapping(uint256 => Proposal) public proposals;\r\n\r\n    mapping(address => uint256) public rewards;\r\n    mapping(uint256 => mapping(address => bool)) voters;\r\n\r\n    uint256 public constant REWARD_PER_VOTE = 1;\r\n    uint256 public tokenPrice = 1 ether;\r\n\r\n    event Vote(\r\n        uint256 proposalId,\r\n        address voter,\r\n        bool inSupport,\r\n        uint256 votes\r\n    );\r\n    event ProposalExecuted(uint256 proposalId);\r\n    event RewardClaimed(address recipient, uint256 amount);\r\n\r\n    constructor(address _tokenAddress) {\r\n        tokenAddress = _tokenAddress;\r\n        token = TokenInterface(_tokenAddress);\r\n        admin = msg.sender;\r\n        proposalCount = 0;\r\n    }\r\n\r\n    function createProposal(string memory _title, string memory _description)\r\n        public\r\n        returns (uint256)\r\n    {\r\n        Proposal memory newProposal = Proposal({\r\n            id:proposalCount,\r\n            creator: msg.sender,\r\n            title: _title,\r\n            description: _description,\r\n            votingStartTime: block.timestamp,\r\n            votingEndTime: block.timestamp + 30,\r\n            forVotes: 0,\r\n            againstVotes: 0,\r\n            executed: false\r\n        });\r\n\r\n        proposals[proposalCount] = newProposal;\r\n        proposalCount++;\r\n        return proposalCount;\r\n    }\r\n\r\n    function vote(uint256 _proposalId, bool _inSupport) public {\r\n        Proposal storage proposal = proposals[_proposalId];\r\n        require(token.balanceOf(msg.sender) > 0, \"Must have tokens to vote\");\r\n        require(block.timestamp > proposal.votingEndTime , \"Voting is still going on\");\r\n        require(!proposal.executed, \"Proposal has already been executed\");\r\n        require(!voters[_proposalId][msg.sender], \"Already voted\");\r\n        uint256 votes = token.balanceOf(msg.sender);\r\n        require(votes > 0, \"Must have tokens to vote\");\r\n        voters[_proposalId][msg.sender] = true;\r\n        if (_inSupport) {\r\n            proposal.forVotes += 1;\r\n        } else {\r\n            proposal.againstVotes += 1;\r\n        }\r\n\r\n        token.decreasebalance(1 , msg.sender);\r\n\r\n        if (votes >= proposalCount/2) {\r\n            uint256 rewardAmount = REWARD_PER_VOTE;\r\n            rewards[msg.sender] += rewardAmount;\r\n            token.updateTotalSupply(rewardAmount , msg.sender);\r\n        }\r\n\r\n        emit Vote(_proposalId, msg.sender, _inSupport, votes);\r\n    }\r\n\r\n    function executeProposal(uint256 _proposalId) public {\r\n        Proposal storage proposal = proposals[_proposalId];\r\n\r\n        require(!proposal.executed, \"Proposal has already been executed\");\r\n        require(\r\n            block.timestamp > proposal.votingEndTime,\r\n            \"Voting period has not ended yet\"\r\n        );\r\n\r\n        uint256 totalVotes = proposal.forVotes + proposal.againstVotes;\r\n        require(totalVotes > 0, \"No votes for proposal\");\r\n\r\n        if (proposal.forVotes > proposal.againstVotes) {\r\n            proposal.executed = true;\r\n\r\n            emit ProposalExecuted(_proposalId);\r\n        }\r\n    }\r\n\r\n    function fetchProposals() public view returns (Proposal[] memory) {\r\n        uint256 currentIndex = 0;\r\n\r\n        Proposal[] memory items = new Proposal[](proposalCount);\r\n        for (uint256 i = 0; i < proposalCount; i++) {\r\n            Proposal storage currentItem = proposals[i];\r\n            items[currentIndex] = currentItem;\r\n            currentIndex += 1;\r\n        }\r\n        return items;\r\n    }\r\n\r\n    function mint(uint256 input_amount) public payable {\r\n        uint256 _amount = input_amount; // the amount sent by the user\r\n        require(_amount > 0, \"Amount should be greater than 0\");\r\n        token.updateTotalSupply(_amount , msg.sender);\r\n    }\r\n    \r\n    function rights() public view returns (uint256) {\r\n        return token.balanceOf(msg.sender);\r\n    }\r\n}\r\n",
  "sourcePath": "H:\\clamp\\backend\\contracts\\DAO.sol",
  "compiler": {
    "name": "solc",
    "version": "0.8.15+commit.e14f2714.Emscripten.clang"
  },
  "schemaVersion": "3.4.8",
  "updatedAt": "2023-04-14T13:51:59.110Z",
  "networkType": "ethereum",
  "devdoc": {
    "kind": "dev",
    "methods": {},
    "version": 1
  },
  "userdoc": {
    "kind": "user",
    "methods": {},
    "version": 1
  }
}