{
  "contractName": "Token",
  "abi": [
    {
      "inputs": [
        {
          "internalType": "string",
          "name": "_name",
          "type": "string"
        },
        {
          "internalType": "string",
          "name": "_symbol",
          "type": "string"
        },
        {
          "internalType": "uint256",
          "name": "Supply",
          "type": "uint256"
        }
      ],
      "stateMutability": "nonpayable",
      "type": "constructor"
    },
    {
      "anonymous": false,
      "inputs": [
        {
          "indexed": true,
          "internalType": "address",
          "name": "from",
          "type": "address"
        },
        {
          "indexed": true,
          "internalType": "address",
          "name": "to",
          "type": "address"
        },
        {
          "indexed": false,
          "internalType": "uint256",
          "name": "value",
          "type": "uint256"
        }
      ],
      "name": "Transfer",
      "type": "event"
    },
    {
      "inputs": [],
      "name": "_totalSupply",
      "outputs": [
        {
          "internalType": "uint256",
          "name": "",
          "type": "uint256"
        }
      ],
      "stateMutability": "view",
      "type": "function",
      "constant": true
    },
    {
      "inputs": [
        {
          "internalType": "address",
          "name": "",
          "type": "address"
        }
      ],
      "name": "balances",
      "outputs": [
        {
          "internalType": "uint256",
          "name": "",
          "type": "uint256"
        }
      ],
      "stateMutability": "view",
      "type": "function",
      "constant": true
    },
    {
      "inputs": [],
      "name": "name",
      "outputs": [
        {
          "internalType": "string",
          "name": "",
          "type": "string"
        }
      ],
      "stateMutability": "view",
      "type": "function",
      "constant": true
    },
    {
      "inputs": [],
      "name": "symbol",
      "outputs": [
        {
          "internalType": "string",
          "name": "",
          "type": "string"
        }
      ],
      "stateMutability": "view",
      "type": "function",
      "constant": true
    },
    {
      "inputs": [
        {
          "internalType": "uint256",
          "name": "_amount",
          "type": "uint256"
        },
        {
          "internalType": "address",
          "name": "sender",
          "type": "address"
        }
      ],
      "name": "updateTotalSupply",
      "outputs": [],
      "stateMutability": "nonpayable",
      "type": "function"
    },
    {
      "inputs": [
        {
          "internalType": "uint256",
          "name": "_amount",
          "type": "uint256"
        },
        {
          "internalType": "address",
          "name": "sender",
          "type": "address"
        }
      ],
      "name": "decreasebalance",
      "outputs": [],
      "stateMutability": "nonpayable",
      "type": "function"
    },
    {
      "inputs": [
        {
          "internalType": "address",
          "name": "_to",
          "type": "address"
        },
        {
          "internalType": "uint256",
          "name": "_value",
          "type": "uint256"
        }
      ],
      "name": "transfer",
      "outputs": [
        {
          "internalType": "bool",
          "name": "success",
          "type": "bool"
        }
      ],
      "stateMutability": "nonpayable",
      "type": "function"
    },
    {
      "inputs": [
        {
          "internalType": "address",
          "name": "account",
          "type": "address"
        }
      ],
      "name": "balanceOf",
      "outputs": [
        {
          "internalType": "uint256",
          "name": "",
          "type": "uint256"
        }
      ],
      "stateMutability": "view",
      "type": "function",
      "constant": true
    },
    {
      "inputs": [],
      "name": "totalSupply",
      "outputs": [
        {
          "internalType": "uint256",
          "name": "",
          "type": "uint256"
        }
      ],
      "stateMutability": "view",
      "type": "function",
      "constant": true
    }
  ],
  "bytecode": "0x60806040523480156200001157600080fd5b506040516200112338038062001123833981810160405281019062000037919062000289565b826000908162000048919062000564565b5081600190816200005a919062000564565b5080600281905550600254600360003373ffffffffffffffffffffffffffffffffffffffff1673ffffffffffffffffffffffffffffffffffffffff168152602001908152602001600020819055505050506200064b565b6000604051905090565b600080fd5b600080fd5b600080fd5b600080fd5b6000601f19601f8301169050919050565b7f4e487b7100000000000000000000000000000000000000000000000000000000600052604160045260246000fd5b6200011a82620000cf565b810181811067ffffffffffffffff821117156200013c576200013b620000e0565b5b80604052505050565b600062000151620000b1565b90506200015f82826200010f565b919050565b600067ffffffffffffffff821115620001825762000181620000e0565b5b6200018d82620000cf565b9050602081019050919050565b60005b83811015620001ba5780820151818401526020810190506200019d565b83811115620001ca576000848401525b50505050565b6000620001e7620001e18462000164565b62000145565b905082815260208101848484011115620002065762000205620000ca565b5b620002138482856200019a565b509392505050565b600082601f830112620002335762000232620000c5565b5b815162000245848260208601620001d0565b91505092915050565b6000819050919050565b62000263816200024e565b81146200026f57600080fd5b50565b600081519050620002838162000258565b92915050565b600080600060608486031215620002a557620002a4620000bb565b5b600084015167ffffffffffffffff811115620002c657620002c5620000c0565b5b620002d4868287016200021b565b935050602084015167ffffffffffffffff811115620002f857620002f7620000c0565b5b62000306868287016200021b565b9250506040620003198682870162000272565b9150509250925092565b600081519050919050565b7f4e487b7100000000000000000000000000000000000000000000000000000000600052602260045260246000fd5b600060028204905060018216806200037657607f821691505b6020821081036200038c576200038b6200032e565b5b50919050565b60008190508160005260206000209050919050565b60006020601f8301049050919050565b600082821b905092915050565b600060088302620003f67fffffffffffffffffffffffffffffffffffffffffffffffffffffffffffffffff82620003b7565b620004028683620003b7565b95508019841693508086168417925050509392505050565b6000819050919050565b6000620004456200043f62000439846200024e565b6200041a565b6200024e565b9050919050565b6000819050919050565b620004618362000424565b6200047962000470826200044c565b848454620003c4565b825550505050565b600090565b6200049062000481565b6200049d81848462000456565b505050565b5b81811015620004c557620004b960008262000486565b600181019050620004a3565b5050565b601f8211156200051457620004de8162000392565b620004e984620003a7565b81016020851015620004f9578190505b620005116200050885620003a7565b830182620004a2565b50505b505050565b600082821c905092915050565b6000620005396000198460080262000519565b1980831691505092915050565b600062000554838362000526565b9150826002028217905092915050565b6200056f8262000323565b67ffffffffffffffff8111156200058b576200058a620000e0565b5b6200059782546200035d565b620005a4828285620004c9565b600060209050601f831160018114620005dc5760008415620005c7578287015190505b620005d3858262000546565b86555062000643565b601f198416620005ec8662000392565b60005b828110156200061657848901518255600182019150602085019450602081019050620005ef565b8683101562000636578489015162000632601f89168262000526565b8355505b6001600288020188555050505b505050505050565b610ac8806200065b6000396000f3fe608060405234801561001057600080fd5b50600436106100935760003560e01c806370a082311161006657806370a082311461012257806395d89b4114610152578063a857eae314610170578063a9059cbb1461018c578063fc272459146101bc57610093565b806306fdde031461009857806318160ddd146100b657806327e235e3146100d45780633eaaf86b14610104575b600080fd5b6100a06101d8565b6040516100ad91906106d9565b60405180910390f35b6100be610266565b6040516100cb9190610714565b60405180910390f35b6100ee60048036038101906100e99190610792565b610270565b6040516100fb9190610714565b60405180910390f35b61010c610288565b6040516101199190610714565b60405180910390f35b61013c60048036038101906101379190610792565b61028e565b6040516101499190610714565b60405180910390f35b61015a6102d7565b60405161016791906106d9565b60405180910390f35b61018a600480360381019061018591906107eb565b610365565b005b6101a660048036038101906101a1919061082b565b6103bf565b6040516101b39190610886565b60405180910390f35b6101d660048036038101906101d191906107eb565b6105cd565b005b600080546101e5906108d0565b80601f0160208091040260200160405190810160405280929190818152602001828054610211906108d0565b801561025e5780601f106102335761010080835404028352916020019161025e565b820191906000526020600020905b81548152906001019060200180831161024157829003601f168201915b505050505081565b6000600254905090565b60036020528060005260406000206000915090505481565b60025481565b6000600360008373ffffffffffffffffffffffffffffffffffffffff1673ffffffffffffffffffffffffffffffffffffffff168152602001908152602001600020549050919050565b600180546102e4906108d0565b80601f0160208091040260200160405190810160405280929190818152602001828054610310906108d0565b801561035d5780601f106103325761010080835404028352916020019161035d565b820191906000526020600020905b81548152906001019060200180831161034057829003601f168201915b505050505081565b81600360008373ffffffffffffffffffffffffffffffffffffffff1673ffffffffffffffffffffffffffffffffffffffff16815260200190815260200160002060008282546103b49190610930565b925050819055505050565b600081600360003373ffffffffffffffffffffffffffffffffffffffff1673ffffffffffffffffffffffffffffffffffffffff168152602001908152602001600020541015610443576040517f08c379a000000000000000000000000000000000000000000000000000000000815260040161043a906109b0565b60405180910390fd5b600073ffffffffffffffffffffffffffffffffffffffff168373ffffffffffffffffffffffffffffffffffffffff16036104b2576040517f08c379a00000000000000000000000000000000000000000000000000000000081526004016104a990610a1c565b60405180910390fd5b81600360003373ffffffffffffffffffffffffffffffffffffffff1673ffffffffffffffffffffffffffffffffffffffff16815260200190815260200160002060008282546105019190610930565b9250508190555081600360008573ffffffffffffffffffffffffffffffffffffffff1673ffffffffffffffffffffffffffffffffffffffff16815260200190815260200160002060008282546105579190610a3c565b925050819055508273ffffffffffffffffffffffffffffffffffffffff163373ffffffffffffffffffffffffffffffffffffffff167fddf252ad1be2c89b69c2b068fc378daa952ba7f163c4a11628f55a4df523b3ef846040516105bb9190610714565b60405180910390a36001905092915050565b81600260008282546105df9190610a3c565b9250508190555081600360008373ffffffffffffffffffffffffffffffffffffffff1673ffffffffffffffffffffffffffffffffffffffff16815260200190815260200160002060008282546106359190610a3c565b925050819055505050565b600081519050919050565b600082825260208201905092915050565b60005b8381101561067a57808201518184015260208101905061065f565b83811115610689576000848401525b50505050565b6000601f19601f8301169050919050565b60006106ab82610640565b6106b5818561064b565b93506106c581856020860161065c565b6106ce8161068f565b840191505092915050565b600060208201905081810360008301526106f381846106a0565b905092915050565b6000819050919050565b61070e816106fb565b82525050565b60006020820190506107296000830184610705565b92915050565b600080fd5b600073ffffffffffffffffffffffffffffffffffffffff82169050919050565b600061075f82610734565b9050919050565b61076f81610754565b811461077a57600080fd5b50565b60008135905061078c81610766565b92915050565b6000602082840312156107a8576107a761072f565b5b60006107b68482850161077d565b91505092915050565b6107c8816106fb565b81146107d357600080fd5b50565b6000813590506107e5816107bf565b92915050565b600080604083850312156108025761080161072f565b5b6000610810858286016107d6565b92505060206108218582860161077d565b9150509250929050565b600080604083850312156108425761084161072f565b5b60006108508582860161077d565b9250506020610861858286016107d6565b9150509250929050565b60008115159050919050565b6108808161086b565b82525050565b600060208201905061089b6000830184610877565b92915050565b7f4e487b7100000000000000000000000000000000000000000000000000000000600052602260045260246000fd5b600060028204905060018216806108e857607f821691505b6020821081036108fb576108fa6108a1565b5b50919050565b7f4e487b7100000000000000000000000000000000000000000000000000000000600052601160045260246000fd5b600061093b826106fb565b9150610946836106fb565b92508282101561095957610958610901565b5b828203905092915050565b7f496e73756666696369656e742062616c616e63652e0000000000000000000000600082015250565b600061099a60158361064b565b91506109a582610964565b602082019050919050565b600060208201905081810360008301526109c98161098d565b9050919050565b7f496e76616c696420616464726573732e00000000000000000000000000000000600082015250565b6000610a0660108361064b565b9150610a11826109d0565b602082019050919050565b60006020820190508181036000830152610a35816109f9565b9050919050565b6000610a47826106fb565b9150610a52836106fb565b9250827fffffffffffffffffffffffffffffffffffffffffffffffffffffffffffffffff03821115610a8757610a86610901565b5b82820190509291505056fea2646970667358221220c8ffe37eed7f2343e4681713d0ceac1c2f8287d1704ccd32c7b8f0b922101c4764736f6c634300080f0033",
  "immutableReferences": {},
  "source": "// SPDX-License-Identifier: MIT\r\npragma solidity ^0.8.0;\r\n\r\ncontract Token {\r\n    string public name;\r\n    string public symbol;\r\n    uint256 public _totalSupply;\r\n\r\n    mapping(address => uint256) public balances;\r\n\r\n    event Transfer(address indexed from, address indexed to, uint256 value);\r\n\r\n    constructor(\r\n        string memory _name,\r\n        string memory _symbol,\r\n        uint256 Supply\r\n    ) {\r\n        name = _name;\r\n        symbol = _symbol;\r\n        _totalSupply = Supply;\r\n        balances[msg.sender] = _totalSupply;\r\n    }\r\n\r\n    function updateTotalSupply(uint256 _amount , address sender) public {\r\n\r\n        _totalSupply += _amount;\r\n        balances[sender] += _amount;\r\n    }\r\n\r\n    function decreasebalance(uint256 _amount , address sender) public {\r\n\r\n        balances[sender] -= _amount;\r\n    }\r\n\r\n    function transfer(address _to, uint256 _value)\r\n        public\r\n        returns (bool success)\r\n    {\r\n        require(balances[msg.sender] >= _value, \"Insufficient balance.\");\r\n        require(_to != address(0), \"Invalid address.\");\r\n\r\n        balances[msg.sender] -= _value;\r\n        balances[_to] += _value;\r\n        emit Transfer(msg.sender, _to, _value);\r\n\r\n        return true;\r\n    }\r\n\r\n    function balanceOf(address account) public view virtual returns (uint256) {\r\n        return balances[account];\r\n    }\r\n\r\n    function totalSupply() public view virtual returns (uint256) {\r\n        return _totalSupply;\r\n    }\r\n}\r\n",
  "sourcePath": "H:\\clamp\\backend\\contracts\\Token.sol",
  "compiler": {
    "name": "solc",
    "version": "0.8.15+commit.e14f2714.Emscripten.clang"
  },
  "schemaVersion": "3.4.8",
  "updatedAt": "2023-04-14T13:51:59.089Z",
  "networkType": "ethereum",
  "devdoc": {
    "kind": "dev",
    "methods": {},
    "version": 1
  },
  "userdoc": {
    "kind": "user",
    "methods": {},
    "version": 1
  }
}